:020000040800F2
:100000008019002065350008297E0008F5340008B5
:10001000F5340008F5340008F5340008F53400081C
:10002000F5340008F5340008F5340008ED33000815
:10003000F5340008F5340008993300089D310008B4
:100040003D3500083D3500083D3500083D350008C8
:100050003D3500083D3500083D3500083D350008B8
:100060003D3500083D3500083D3500083D350008A8
:100070003D3500083D3500083D3500083D35000898
:100080003D3500083D3500083D3500083D35000888
:100090003D3500083D3500083D3500083D35000878
:1000A0003D3500083D3500083D3500083D35000868
:1000B0003D3500083D3500083D3500083D35000858
:1000C0003D3500083D3500083D3500083D35000848
:1000D0003D3500083D3500083D3500083D35000838
:1000E0003D3500083D3500083D3500083D35000828
:1000F0003D3500083D3500083D3500083D35000818
:100100003D3500083D3500083D3500083D35000807
:100110003D3500083D3500083D3500083D350008F7
:100120003D3500083D3500083D3500083D350008E7
:100130003D3500083D3500083D3500083D350008D7
:100140003D3500083D3500083D3500083D350008C7
:100150003D3500083D3500083D3500083D350008B7
:100160003D3500083D3500083D3500083D350008A7
:100170003D3500083D3500083D3500083D35000897
:080180003D3500083D35000883
:1001880053B94AB9002908BF00281CBF4FF0FF31F6
:100198004FF0FF3000F00CB8ADF1080C6DE904CE5B
:1001A80000F008F8DDF804E0DDE9022304B0704748
:1001B800704700BF2DE9F04F099F154604468E464B
:1001C8001E46002B40F0CC808A42B2FA82FC4CD901
:1001D800BCF1000F0BD0CCF1200801FA0CFE20FA7C
:1001E80008F802FA0CF548EA0E0E00FA0CF44FEA89
:1001F80015491FFA85F8BEFBF9FA210C09FB1AE329
:100208000AFB08FB41EA03439B452AD9EB180AF18C
:10021800FF3004D29B4502D9AAF102002B44A3EB7C
:100228000B03A4B2B3FBF9F209FB123302FB08F883
:1002380044EA0344A04516D92C1902F1FF3303D22E
:10024800A04501D9931E2C44A4EB080443EA0040BE
:1002580027B124FA0CF400233C607B603146BDE8EA
:10026800F08F5046DBE71346EEE702B9FFDEBCF13C
:10027800000F2ED18B1A01264FEA154EAAB2B3FBF6
:10028800FEF8210C0EFB183308FB02F941EA034380
:10029800994561D9EB1808F1FF3004D2994502D984
:1002A800A8F102002B44A3EB0903A4B2B3FBFEF1AF
:1002B8000EFB11334A4344EA0344A2424ED92C1997
:1002C80001F1FF3303D2A24201D98B1E2C44A41A98
:1002D800BCE7CCF1200E02FA0CF521FA0EF901FA6E
:1002E8000CF320FA0EFE4EEA03034FEA154800FA13
:1002F8000CF4B9FBF8F11FFA85FE08FB1192180CF3
:1003080001FB0EF640EA0242964221D9AA1801F1F1
:10031800FF3003D2964201D9881E2A44921B9BB211
:10032800B2FBF8F908FB192209FB0EFE43EA024367
:100338009E450FD9EB1809F1FF3604D29E4502D924
:10034800A9F102062B44A3EB0E0346EA004693E705
:100358000846E3E74E46F6E74046A4E70B46B6E70D
:100368008B4205D90FB1C7E900010026304675E771
:10037800B3FA83FCBCF1000F0FD18B4201D3824248
:1003880009D8841A61EB030E0120002F6AD0C7E94F
:10039800004E002662E76046F7E7CCF1200E03FA2C
:1003A8000CF322FA0EF521FA0EF41D4301FA0CF3B0
:1003B80020FA0EF10B434FEA154A00FA0CF6B4FB8B
:1003C800FAF91FFA85F80AFB19401C0C09FB08F119
:1003D80044EA0044A14202FA0CF23FD92C1909F16F
:1003E800FF3004D2A14202D9A9F102002C44641AB8
:1003F8009BB2B4FBFAF90AFB194409FB08F843EA73
:10040800044188452CD9691809F1FF3304D288457D
:1004180002D9A9F10203294443EA0040A1EB0801EB
:10042800A0FB02894945C2464C4602D306D146453F
:1004380004D2B8EB020A69EB0504013897B1B6EBB0
:100448000A0361EB040606FA0EFE23FA0CF34EEAE1
:10045800030326FA0CF6C7E900369AE74846C6E7CA
:100468004B46D9E73E46F9E62DE9F74F0024DFF879
:100478005C80DFF85C90DFF85CA0ADF804402746AC
:10048800A346D8F80000436801A91B6998479DF85E
:1004980004609DF80520BE42054603D1A24201D161
:1004A80083450DD0022D96BF074B514653F82510B2
:1004B80048463346144606F04AF93746AB46E0E765
:1004C800642005F099FCF9E7E4920008D8000020C0
:1004D8000E990008C4980008064B07481B78022BA1
:1004E80096BF064A064952F82310064A13785278EE
:1004F80006F02DB912090020FD980008E4920008C2
:10050800C4980008100900202DE9F0418CB00023A0
:1005180040F281520193ADF8083062F31223009340
:1005280001238DF8053040F2FF73ADF80630164B05
:10053800186816496A4601F0DDFF0446014614486A
:1005480006F005F9002C03DA2146124806F0FFF8F8
:10055800114EDFF83880114F0122327003AD4FF091
:10056800FF322946404604F0C3FC95E80F0008AC6A
:1005780007C407A93846238008F0ABF93378002B65
:10058800EDD10CB0BDE8F081D8000020142B00207C
:10059800CC980008E398000813090020DC0000202C
:1005A80082B00F4BADF8041018700E4BBDF8042044
:1005B8000D491A80BFF35B8F51E8003F43F00102F9
:1005C80041E800200028F7D1BFF35B8FDB0704D494
:1005D8000648083902B008F07CB902B0704700BF7D
:1005E8001209002010090020200200209008002095
:1005F8000346084611B9054806F0A9B89A790AB120
:10060800012A02D10E2105F0F9BB7047269800088F
:100618002DE9F04F1F4689B04B789DF848B0139CE0
:100628000393824688461546002B55D00E2200219A
:1006380004A807F035FD98F800308DF8165003F53A
:10064800C063002263F31222082327FA03F9402D1E
:1006580004928DF815308DF817708DF818908DF874
:1006680019B00DD0232D3BD123788DF81A3063783B
:100678008DF81B30A3788DF81C30E3788DF81D3089
:100688000023DAF804200093526804A9164650465D
:100698004FF0FF32B0474FF0FF31134808F01EF912
:1006A80098F80020436802F5B062C3F30A239A421F
:1006B80016D1C37ABB4205D0037B4B4502D0437B9E
:1006C8005B450DD1402D07D1837B2370C37B6370BD
:1006D800037CA370437CE370039809B0BDE8F08FF6
:1006E80000230393F8E700BFDC0000202DE9F04168
:1006F8000E4686B0002141704161067004461546D9
:1007080002A80E2207F0CCFC06F5C062002362F3B3
:100718001223029308238DF80D3040238DF80E30F4
:100728001A4F10238DF810303B785BB300276B68A5
:100738000097D3F804804FF0FF323B4602A92846C1
:10074800C0474FF0FF31124808F0C8F8436806F573
:10075800B066C3F30A23B34205D1037C022B02BF60
:1007680001236370A7702946204605F058FB2946E7
:10077800204605F0ACFB2946204605F094FB06B060
:10078800BDE8F081642005F037FBCDE713090020B0
:10079800DC0000202DE9F041A2B0664808F091F88D
:1007A800654804F045FA0646634804F041FA0546F0
:1007B80073680D221C68002101233046A0476B682E
:1007C80007AF1C680E22012300212846A0470023FA
:1007D80010227B603B8162F31223079301238DF87B
:1007E800213040F2FF73ADF822305448544C04F0E5
:1007F8001FFA206048BB534804F01AFA804620606C
:1008080018BB514805F0A3FF42460E21284605F0C3
:10081800F5FA206843684D4A1B68002198474C4BFD
:100828004C4A4D490025C3E901251D60CDE9005713
:100838004A4B4B4A206801F069FE013007D149480C
:1008480005F085FF22B0BDE8F0810122DDE7022333
:10085800CDE90253CDE90455CDE90055424B434952
:1008680043484FF4007204F0D9FF10B9414805F02D
:100878006EFF00230222CDE90232CDE90433CDE92F
:1008880000334FF400723C4B3C493D4804F0C6FF2E
:1008980010B93C4805F05BFF20683B4943685B6939
:1008A8009847226801210AA8FFF720FF21680AA8B3
:1008B80005F03AFB21680AA805F04DFB21684FF4C2
:1008C800FA620AA805F09EFB216807220AA805F02B
:1008D80052FB21684FF4FA720AA805F07CFB032248
:1008E80021680AA805F062FB21680AA805F002FB46
:1008F800216800220AA805F09CFB21680A220AA8A0
:1009080005F0AEFB40F6B83005F076FA21686FF0D6
:1009180009020AA805F0A4FB002404F001020D2135
:10092800304605F06BFA4FF4FA70013405F064FABA
:10093800F3E700BFDC000020659800083A9800083B
:10094800D8000020409800084698000848E80100B0
:1009580018020020E104000890080020F9050008AA
:10096800C40100206B9800081105000880090020C8
:10097800580100208898000871040008800B0020A6
:10098800EC000020A2980008A90500080B680133B4
:100998000B60014B1B6818474C2900202DE9F04FCC
:1009A80085B09B460E9CDFF88890012CB8BF0124C7
:1009B800012B0CBF3023202316468246884602931B
:1009C80001250A270022B6FBF9F301930AB9B145BC
:1009D8001DD8019B414603F13000D0470135012263
:1009E800019B013F012F09FB13664FF00A03B9FB76
:1009F800F3F9E8D1414606F13000D047BBF1030FC7
:100A080002D1641B002C0EDC05B0BDE8F08FBC429F
:100A1800E6DBBBF1020FE3D84146029803920135A9
:100A2800D047039ADCE741462020D047013CE9E75C
:100A380000CA9A3B014B1860704700BF4C29002040
:100A480007B50023019302460B46034801A905F0A8
:100A58000EFD03B05DF804FB950900084FF0100285
:100A6800EFF3118382F31188BFF36F8F83F311883B
:100A7800BFF36F8F024B034A1A600020704700BF14
:100A8800EC2900200024F400F8B50B4A0B4C0C4D5F
:100A98000C4F0021064606F080F8AC4201D1002038
:100AA800F8BD636833B123683A461B6800213046B5
:100AB80006F073F80C34F0E7A4990008F829002030
:100AC800002B0020AE990008F8B50C4B0C4F53F8DA
:100AD80021400131064653F821500020A54200D894
:100AE800F8BD63683BB1236830461B683A4600216D
:100AF80006F053F801200C34F0E700BF0493000817
:100B0800AE99000810B51F4A0446002106F045F8C2
:100B180002212046FFF7D8FF014618B91A4A204695
:100B280006F03BF8194A0021204606F036F8032162
:100B38002046FFF7C9FF014618B9134A204606F0B8
:100B48002CF8134A0021204606F027F800212046F9
:100B5800FFF7BAFF014618B90B4A204606F01DF800
:100B68000C4A0021204606F018F801212046FFF71C
:100B7800ABFF014618B9044A204606F00EF80020DB
:100B880010BD00BF629900087099000878990008A4
:100B9800869900089599000837B58368D3F85822D4
:100BA800520604460D4608D5B3F85822C0686FF3BC
:100BB8008612A3F8582206F0E9FCE368DB6863B9FB
:100BC8009DB3A068383005F0B4FFA36878B303F18B
:100BD800380103F59C7007F0C5F9A268E0680DF1CB
:100BE80006033832294606F0D4FC58B9A06800F547
:100BF8009C71383007F0B6F9A068383005F099FFD5
:100C0800ADF80600204606F093FA0A4A0A496069D8
:100C180005F095FF204600F08DFEA368BDF806207C
:100C28009A865A86204600F047FE03B030BD83F806
:100C38003801D2E70A9A0008B49A00082DE9F04F63
:100C48009DB004460023039306F078FA204606F088
:100C5800FDF918B98C49606905F071FFA068142284
:100C68000021083007F01CFA204606F096F9A16822
:100C7800E0684A8E383106F0C3FC204606F045FD90
:100C8800A2680C2338320FA904A806F01BF8049AAE
:100C980003462AB96FF0070528461DB0BDE8F08F56
:100CA80028B17A4A0221204606F0E1FAF2E7054621
:100CB800074681468246064683463EE0744958F810
:100CC800340C07F081F9002845D058F8342C5946DF
:100CD800204601F0D7F9022828D1B9F1000F09D030
:100CE800204606F034FDA2680C2338320FA904A868
:100CF80005F0E8FFA0684369002B40F08F80002DC5
:100D0800C8D0C3689D420CD00B9500F1080503E0DC
:100D1800A3680B9503F108050AAE0FCE0FC533681B
:100D28002B60204605F018FF0125B5E703281AD0E7
:100D38000136B8464FF001094746049BB342CCD967
:100D48008EB11CAB03EB8608524958F8340C07F0F7
:100D58003BF90028B2D1002DDAD14F4A02212046B2
:100D680006F085FA96E705AB019303AB07F1010896
:100D7800009332463B465946204600F04BFDB8F1F9
:100D8800000F01D0039B83B9002EA6D1A368DB69AD
:100D980013B1DB68002BA0D1404B0093404A0F9B56
:100DA8000221204606F063FA74E719681CAB03EBCE
:100DB800860353F8340C07F007F90028BCD1039FC9
:100DC800FB68BBB1B9F1000F07D0204606F0B6F9B1
:100DD800204600F071FD334AC0E7A368BE4603F120
:100DE800080CBEE80F00ACE80F00DEF80030CCF8C5
:100DF8000030B246D7F804C0BCF1000F08D0BE4698
:100E0800BEE80F000AAD0FC5DEF800302B6065465E
:100E18000136D7F808B04FF000088DE7049D037E2F
:100E2800A5EB0A058BB19D42427E02D313449D4235
:100E38000BD983681C4A0221204606F018FA20467E
:100E480005F08AFE6FF0150526E700F53B7004F003
:100E58001FF9A368B3F8582242F08002A3F8582279
:100E68000FAA29465B6902EB8A0220469847054685
:100E7800A068B0F858326FF3C713A0F8583200F5DD
:100E88003B7005F086FE07E7B89A0008179A000835
:100E98002E9A00082B9A0008359A0008539A0008E1
:100EA8003B9B0008679A0008969A00082DE9F041D4
:100EB80004464068374A1F46036886B01D682346C3
:100EC800A8470646002861D101464FF44172A06840
:100ED80007F0E6F8A3682268E0681A6006F0FBFBF2
:100EE800A06800F53B7007F089FC4FF427784FF4B1
:100EF8001775A068284407F0C9FFA06800224319A5
:100F080001214044103504F04FFEB5F5277F08F164
:100F18001408EED1A36900251D60A368B3F8582210
:100F2800186842F01002A3F85822B3F8582242F089
:100F38000402A3F85822B3F8582242F02002A3F87A
:100F4800582201221A71144A9A6205F0F2FDA36828
:100F580083F82C00A268B2F8583243F00203A2F8D2
:100F68005832D4E909010E2303930C9B0094CDE970
:100F78000173CDE90455094B4FF4006204F04EFCAF
:100F8800A368216AC3F8000307F003FE304606B0E1
:100F9800BDE8F081876B000818005000351700087D
:100FA80083681B79012B10B504460BD1002100F092
:100FB800C9FC0649606905F0C2FD204605F0D5FD6B
:100FC800002010BD6FF02200FBE700BFB79A0008B1
:100FD8002DE9F04F8368BFF35B8FADB0044603F58E
:100FE800167353E8002F42F0080243E80021002955
:100FF800F7D1BFF35B8FA3681B79022B40F0838383
:1010080000230B936068036801221D690DF12B0111
:101018000BABA8470B9B002B00F075839DF82B109A
:101028000806EFD4A0684379022B00F26A83DFE850
:1010380013F00300DA02FF020D291BD00A2919D088
:10104800B0F858326FF30F23A0F85832092955D059
:101058003AD80029D6D0082900F02982A1F1200326
:101068005E2B00F23382B0F8583243F04003A0F808
:1010780058321FE1D0F8583213F47F4F05D0D0F81A
:101088005832C3F307239942E0D1B0F8583261F3DC
:101098000F23A0F85832438E93B9C26982B9B0F8C9
:1010A800583262F38613A0F85832E06806F06EFAF8
:1010B8008549606905F043FD204605F056FDA1E726
:1010C8002046FFF7BBFDF7E71B2914D07F29C5D1C0
:1010D800D0F858325F0795D5B0F8583243F040033E
:1010E800A0F85832D0F858329E0600F1EB8120461D
:1010F80006F0FEF886E70123437183E7D0F85832FB
:10110800C3F38009B9F1000F3FF47CAFB0F858324F
:1011180043F04003A0F85832438EFF2B3FF472AFE0
:10112800828E00F1380100F59C7006F08FFFA268EE
:10113800938E1344002183F8381102F59C720C2316
:101148001FA90DA805F0BEFDA3689A8E134493F855
:101158003730202B54D0093B042B8CBF00230123AC
:101168000D9919B1002B4ED101294BD100250C95B1
:101178000C9B2CAA02EB8303002653F834AC504690
:1011880005F0D7FCB046049005960396B3461AAF0F
:10119800002D45D0A9682B1C18BF0123CDE9017388
:1011A80015AB0093029A4346204600F033FB159B8B
:1011B800002B39D01868002834D0DA68002A31D1D9
:1011C8009B68B3FA83F35B09049A0293514606F0CD
:1011D80007FF029B034310D1159B186806F0EDFE2C
:1011E800059B834238BF03469BB205930136BBF18A
:1011F800000F02D1CDF80C80CB4608F10108C7E7F3
:101208000123ADE701390023019310AB00931FAA16
:101218000CAB204605F042FE05460028A8D1F1E6B1
:101228002946B8E70023CFE7012E4FD10C9B2CAA03
:1012380002EB830353F8340C05F07BFC064605B13A
:10124800AD68A3680833CDE900732946DDE90223B8
:10125800204600F0DFFA1A9B186805F06AFC8642FF
:1012680007D01A9B1968821B92B23144204606F0B7
:101278003DF8A3689A8E1A4492F83820202A1DD087
:10128800093A042A1AD9D3F85822D20711D5B3F843
:1012980058226FF30002A3F858222021204600F0BC
:1012A80019FCA268B2F8583243F00103A2F8583288
:1012B800A8E62021204600F00DFCA3E601212046E7
:1012C80005F0D8FE9EE600BFB89A000806937FF6A0
:1012D80099AE0C9ADFF854832CAB03EB820252F8D8
:1012E800343C0493184605F024FCA268069BDDF8FC
:1012F8000C90089013860696002D00F08680A96849
:10130800A368029A083301931AAB009320464B4610
:1013180000F080FA1A9B186809F10109002876D1B3
:101328001A9BD3F800A0BAF1000F40F08280A3689E
:10133800A3F830A0069B013B0693DDD1B54960694F
:1013480005F0FDFB204600F0F7FB0C9B2CAA02EBF6
:10135800830353F8340C05F0ECFB039B804603F140
:101368000109002D00F09D80A96815AB01930EAB13
:1013780000932046DDE9022300F04CFA0E9BA0689A
:101388001968FF2200F59C7006F0F6FD0E9BD3F855
:1013980000A04FF6FF77002D00F08780A968029A19
:1013A8001AAB01930FAB009320464B4600F032FA7C
:1013B8000F9B09F1010BE3B11868A368002203F53C
:1013C8009C7313F801CB815C614505D121B10132D1
:1013D8004FF6FF718A42F4D1B8F1000F01D04245AF
:1013E80061DB974206F1FF36A8BF1746012EBFB250
:1013F80059D1002F3FF406AEA7EB080292B20AEBD0
:101408000801204605F072FFFCE5294678E7DA680E
:101418001AB99B68002B3FF46FAF049B002B3FF475
:101428007FAF089A049906F0DBFD00283FF478AFF7
:1014380062E7404605F07DFB059B1844A3681FFA48
:1014480080FB40465F8D05F074FB0990504605F01F
:1014580070FBABEB000083B2A1680793099B0A8E6F
:10146800FF1A97FBFBFB1FFA8BFB501CB2FBFBF32D
:101478000BFB132292B2088662B9CDF800A043464E
:10148800654A0721204605F0F2FE0799204600F03C
:1014980003FA4FE75346614A0721204605F0E7FE65
:1014A800F3E7294661E7D94675E7294677E7D0F893
:1014B80058325B077FF5A6ADB0F8583243F04003C9
:1014C800A0F85832204605F02EFF9BE5D0F8583298
:1014D8005D077FF597AD013916293FF693AD01A356
:1014E80053F821F0D51600084915000851150008D1
:1014F800F7100008C9160008771500080D10000835
:101508000D1000080D1000080D1000087F150008C8
:10151800871500080D100008A31500080D10000815
:10152800AD1500080D1000080D1000080D1000087A
:101538000D100008B11500080D100008DD15000891
:10154800204605F002FE5DE5204605F0F7FD204641
:1015580005F07CFD18B92F49606905F0F0FAA2681A
:10156800B2F8583243F04003A2F85832A4E52046B6
:1015780005F0F3FD46E5204605F0F8FD42E5606913
:10158800274A264905F0DBFA6069264A234905F00F
:10159800D6FA204600F0D0FA34E500212046FFF7BD
:1015A800FBFA2FE50121F9E7204605F0C1FDA36804
:1015B8001A49002283F838209A865A86A268B2F817
:1015C800583243F04003A2F858326069164A05F0D1
:1015D800B6FA17E5204600F0FFF9A268B2F85832CB
:1015E80043F0400362E65B2901D1022384E5D0F889
:1015F8005832580706D5622908D14FF0FF312046E6
:1016080005F05CFDA36800225A71FBE46629F9D154
:101618000121F4E7B89A0008B19A0008B49A0008C2
:101628000E9A0008129A00080A9A0008F1A3000806
:1016380000234371D0F858325A077FF5E3AC3139AB
:101648001B293FF6DFAC01A353F821F0D11600089F
:10165800DD160008FB160008C51600080D10000866
:101668000D1000080D1000080D1000080D100008DE
:101678000D1000080D1000080D1000080D100008CE
:101688000D1000080D1000080D100008AD15000819
:10169800A315000877150008491500080D10000863
:1016A800C91600080D100008D51600080D1000080E
:1016B8000D1000080D100008E116000803234371FF
:1016C800204605F03BFD9DE403234371204605F0C9
:1016D8002FFD97E403234371D0F85832B0F858220D
:1016E80003F0010383F0010363F30002A0F858221A
:1016F80088E403234371D0F858325B077FF582AC46
:10170800F5E40023F8E4A368BFF35B8F03F51673D1
:1017180053E8002F22F0080243E800210029F7D1FE
:10172800BFF35B8F2DB0BDE8F08F00BF37B504461F
:101738004068036800219B689847C0B92046FFF7B6
:101748002FFCA0B9A06800F527704FF0FF320321E5
:1017580004F03EFA0546A06800F53B7005F019FA5A
:101768003DB12B46204A0221204605F080FD03B0FA
:1017780030BD606803685B6903B19847A56801AA32
:10178800694605F51F7007F086FB009BB3B100237F
:10179800C5F88432A368D3F858321B070AD46068A6
:1017A80003685B689847054620B9E06805F01CFFA8
:1017B800A3681D7103F072FF01F0BAFFA56801AAC2
:1017C800694605F5177007F066FB009B2BB10023EF
:1017D800C5F864322046FFF7FBFBA06800F53B70B4
:1017E80003F056FCAEE700BFBA9A000810B50446ED
:1017F80013460A460146064802F080F823691B7919
:1018080023B12046BDE8104005F0F4B910BD00BF73
:10181800156C000870B5DDE904460020206052B957
:101828000F48104A121AB3EBD20F03D200EBC303CE
:101838005B68236070BD0029FCD00A784D683AB116
:1018480018463146A8473368002BF3D02660F1E7E5
:1018580014225343EA18EB58002BEBD02260E9E737
:10186800A4920008DC920008014A024905F0CDBBA9
:10187800D19A0008B49A000859B1002981EAE172A6
:10188800A2EBE172CCBF412342230249406905F033
:10189800BCBB7047DF9A000859B1002981EAE172A0
:1018A800A2EBE172CCBF432344230249406905F00F
:1018B800ACBB7047DF9A000810B5044605F0C6FBBC
:1018C80028B160690549BDE8104005F09EBB04F1E8
:1018D800080005F0A7FB0028F3D110BDB89A00084E
:1018E8002DE9F0410646054656F8084F04F1200058
:1018F800628EA18E05F0D0F93046B4F82480E78CCA
:1019080005F090FB18B10A49686905F07EFBB845F7
:1019180007D1218C638C2846C91ABDE8F041FFF72E
:10192800BBBFE18CA38C2846C91AFFF7A5FFF0E7D7
:10193800B89A0008826802494069383205F065BBE8
:10194800B49A0008836807B593F82E208A4212D00B
:1019580083F82E10406989B1094B009333238DF821
:1019680004302F316D238DF80510ADF806306A4626
:10197800044905F04AFB03B05DF804FB024AF7E7A7
:101988001B5B313BB49A0008DB9A000837B50D465B
:1019980009780446FFF7D6FF6B78CBB1A26892F8B6
:1019A8002F10994214D045F61B31ADF800103421A0
:1019B8008DF8021003F12F018DF803106D21ADF899
:1019C800041082F82F30034960696A4605F01DFB50
:1019D80003B030BDB49A0008F8B583685A8E05463E
:1019E800002A46D0988E002843D03730184403F197
:1019F80038060346C41AB342A4B219460DD311F8E7
:101A08000179202F33D01946013B0878202804D0CB
:101A180001349E42A4B21946F5D9631C4E1C121B10
:101A28001944304606F0FBFAA9684A8E121B92B296
:101A38004A860A440027614282F83870284609B26B
:101A480005F018FB68690B4A0B4905F0DEFA3946C0
:101A58003346094A284605F00AFC6869FFF704FF7F
:101A68006869064A0449BDE8F84005F0CEBA0B4655
:101A7800C0E7F8BDD59A0008B49A0008D89A0008BB
:101A880070B504460D46164612B14069FFF7ECFEE4
:101A9800A268938E3833134420460C4A002105F07F
:101AA800E6FB204650F8083F5A8E9A8605F0BAFAA7
:101AB80028B106B11DB10649606905F0A6FA694268
:101AC800204609B2BDE8704005F0D4BAB49A0008BF
:101AD800B89A000813B583688DF80710D3F8582210
:101AE800D20704461DD5998E5A8E8A4219D0481CB1
:101AF80098860B449DF8072083F83820A368D3F80C
:101B080058325B070BD56069094905F07EFA204613
:101B180005F09CFA18B10749606905F076FA02B039
:101B280010BD01220DF10701204605F0ADFBF6E7D7
:101B3800E39A0008B89A000883680A4A1B6810B537
:101B48000446032105F093FBA368D3F858325B07DA
:101B580007D52046FFF7EEFE2046BDE81040FFF708
:101B6800BFBE10BDB49A0008406810B50C460168A5
:101B78008B606368C1E900422BB19B6C1BB10246C4
:101B880004492046984763689B6A0BB120469847EA
:101B9800002010BDF173000813B5074803F048F89A
:101BA80000240123014600941A460448FFF77EF9F1
:101BB800204602B010BD00BFE69A00086C930008EA
:101BC8002DE9F047054690460F4600296ED00024BF
:101BD8003B5D202B25D0093B042B22D9DFF8D09080
:101BE800384606F0EAF9AB68598D80B2001BA1EBC4
:101BF8000803984207EB040A15D95046002610F846
:101C0800012B202A06D0A2F1090CBCF1040F02D83E
:101C18000A2A31D0334608EB060291422BD9013605
:101C2800EDE70134D4E753460026B04217D013F845
:101C3800012B0A2A04EB06091BD1686904F0DAFFB4
:101C480032465146284605F0B5FA1949686905F043
:101C580037FC4146284609F10104FFF71DFE3919F2
:101C6800686905F02DFC68691149BDE8F04705F081
:101C780027BC0136D9E71E46686904F0BBFF324627
:101C88005146284605F096FA34443B5D202B0BD08C
:101C9800093B042B08D94946686905F011FC4146FF
:101CA8002846FFF7F9FD9BE70134EEE7BDE8F0872A
:101CB800B89A00082DE9F04F82688DB012690023A8
:101CC80004460693002A51D098461D4607AE06AF33
:101CD800CDE90076A1684346012209692046FFF74D
:101CE80099FD069B08F10109002B3CD0186810B13A
:101CF80006F063F980B2854238BF0546B8F1FF3F68
:101D08002FD1204ADFF880900021204605F0AFFA55
:101D18000023CDE90076A16801220969204603F174
:101D2800010BFFF777FD069B03B31A681648059267
:101D3800D3F8048006F041F9059A82467AB1CDE9D4
:101D4800012900954B46114A0021204605F08FFADB
:101D5800B8F1000F0DD10E49606905F0B1FB5B4683
:101D6800D7E7C846B4E7B9F1010FCAD10DB0BDE84D
:101D7800F08F6A1C02EB4A0292B241462046FFF7F6
:101D88001FFFECE7059B00081D9B0008139B00083C
:101D9800B89A0008836873B505469868C8B106F014
:101DA8000CF984B20C4E304606F007F9AB68009681
:101DB80004449B68094A2846002105F058FAAB6894
:101DC800A4B2D9682246284602B0BDE87040FFF7A1
:101DD800F7BE0446E6E700BF019B0008B29A000878
:101DE80038B5074D074A04462946406905F0AFFB58
:101DF8006069054A294605F0AAFB002038BD00BFE6
:101E0800B49A0008269B00082A9B000810B50446CF
:101E1800044A0549406905F09AFBA368034A9A6297
:101E2800002010BD2F9B0008B49A0008180050002D
:101E380008B58369034A1B68002104F0AEFE002040
:101E480008BD00BF679D000810B5064A044600217A
:101E580004F0A3FE2046044A002104F09EFE002060
:101E680010BD00BF6C9B00085B9C0008F0B5104FCC
:101E780085B004460025A268E0680DF10E0302F55E
:101E88009C72012105F085FBBDF80E00A36858B1CE
:101E980003F59C7300936E1C2B463A46002120469E
:101EA80004F07BFE3546E6E783F8380105B0F0BD5F
:101EB800239D0008022907B50CD1536801930D4BE7
:101EC800009313680C4A04F068FE6FF0150003B025
:101ED8005DF804FB8368094AD3F8583213F0040FFD
:101EE8004FF00001064B18BF1346064A04F055FE92
:101EF8000020ECE7419B0008389B0008359B000850
:101F08005E990008569B0008F0B5012985B0054682
:101F18000DD053680193534B00931368524A022122
:101F280004F03BFE6FF01504204605B0F0BD4F4AA3
:101F38004F49406905F00BFB6FF0F9012846FFF7A0
:101F48009BFCFA212846FFF7A7FCA86800244FF459
:101F58008072214600F59C708DF80B4006F0A0F8C1
:101F68004449686905F0F3FA686904F043FE4FF4E0
:101F78007A766868036801221F690DF10B0103ABCB
:101F8800B847039B53B9013E4FF47A70B6B203F0D9
:101F9800F3FB002EEDD16FF0220431E09DF80B30F9
:101FA800AA681B2B53D092F838111B29E1D1522B68
:101FB8004DD11444002384F8383192F839115B2943
:101FC8004DD102F59D701F46022610F8011B0136FF
:101FD8003B29B6B226D1B6F5807FDCD006F59C70D9
:101FE8001044002310F8014B34BBFA2B28BFFA2306
:101FF800FA2F53853B4628BFFA2382F838411385C8
:102008001D4A1B49686905F0A2FA002C8CD0AB6800
:102018001A4A9A6204211A4A284604F0BEFD6FF053
:10202800070481E707EB870301EB4303303BB6F571
:10203800807F9FB2C9D1AEE703EB8303013604EB7F
:102048004304B6B2303CFF2EA3B2CBD9A3E7111993
:102058000134A4B2092C81F838318AD9002382F8D6
:10206800383198E7419B0008389B0008209B0008FE
:10207800B49A0008679B0008239B000818005000CA
:102088002D9D00082DE9F04F824689B016468B46F3
:1020980021B90324204609B0BDE8F08F104605F0A9
:1020A80020FB0028F5D00025019502249BF800208C
:1020B800DBF8043068428AB103A99847039B002BD8
:1020C8005BD1019B002BE5D0DAF80800324600F11D
:1020D800360100F59C7004F0BAFEDBE76FF01302DE
:1020E8006A4303EB02089B58002BEAD00022D8F879
:1020F8000010304604F01AFD80BBD8F80090DAF8DA
:102108000870B9F1000F2CD0484605F056FF84B28C
:10211800FB8E01332344B3F5807F24DC314607F579
:102128009C7005F002FF804628B305F046FF82B296
:10213800601C01324146404405F071FF2246494681
:10214800404605F083FF202308F80430FB8E1C442A
:10215800019B01340133FC8601930024013DA5D184
:10216800AFE74C46D4E73346054A0421504605F00C
:102178007EF80124A5E70224A3E70DF10C08B5E7D2
:102188004AA100080A2838B50446074D04D1286832
:1021980043680D215B68984728684368E1B25B682B
:1021A8009847204638BD00BFAC05002010B5044C48
:1021B800204602F05BF82046BDE81040FEF73ABC26
:1021C8008D21000808B5044802F032FD034B186061
:1021D800FFF7ECFF002008BDE69A0008AC050020D8
:1021E8002DE9F84395680D4E04460F464FF0010857
:1021F80005F10409BC4201DBBDE8F883726908FAFD
:1022080004F333EA020207D1736155F834301BB185
:1022180059F83410204698470134EBE7003C014058
:102228001F2808B502DD6FF0220008BD064A012309
:10223800116883400B4316281360F4DC034B1856CF
:1022480001F0E0F80020F0E7003C01409CA1000804
:102258001F2806DC034901220B68824023EA020397
:102268000B607047003C0140CA0710B507D51F280E
:1022780005DC084B01229C68824022439A608B0748
:1022880007D51F2805DC034A0123D16883400B4387
:10229800D36010BD003C0140074930B58C6854F844
:1022A800301004EBC00521B944F830206B600846B3
:1022B80030BD6FF00F00FBE7342A0020044B9A680A
:1022C80002EBC001002342F830304B60704700BF7A
:1022D800342A00200B6884B0032B2DD8DFE803F0E4
:1022E800020E1822164A4B68116B19431163126BC0
:1022F80013400093009B002004B07047104A4B68BD
:10230800516B19435163526B13400193019BF2E7E0
:102318000B4A4B68116C19431164126C13400293F9
:10232800029BE8E7064A4B68516C19435164526CAA
:1023380013400393039BDEE76FF02200DCE700BF46
:10234800003802400B68032B20D8DFE803F0020AAC
:102358001118104A4968136B23EA0103136300201C
:1023680070470C4A4968536B23EA01035363F6E745
:10237800084A4968136C23EA01031364EFE7054A26
:102388004968536C23EA01035364E8E76FF02200BD
:10239800704700BF00380240084B09681B680329D2
:1023A80009D8DFE801F0030302069B081360002048
:1023B80070475B08FAE76FF022007047EC290020AD
:1023C80030B5002187B04FF4A053CDE900134FF486
:1023D8000043029300F038F803A805F036FA184BCA
:1023E8001A68900706D41A6842F001021A601A683F
:1023F8009207FCD5124CA36823F00303A360A368DB
:1024080023F0F003A360A56815F00C05FBD1236841
:102418000C4823F080732360636823F0706343F0F3
:10242800E063636003AA6B46294602F09DFB2368BC
:1024380023F00103236005F011FA284607B030BDE8
:10244800003802400024F400064B1A6C42F0805217
:102458001A641B6C82B003F080530193019B02B095
:10246800704700BF0038024073B5044606090D46A0
:10247800104612B9114802F0DBFB00230093104B01
:1024880053F826300193013302D16FF0040012E0B3
:10249800436869461B6898470028F6D120118002D6
:1024A80000F1804005F00F032A4604F00F0100F503
:1024B800003005F02CFF02B070BD00BFBEA10008BF
:1024C800D4950008F8B504460E46094802F0B0FB5A
:1024D80000250746B54204F1080400D1F8BD3A4684
:1024E80054F8041C14F8080CFFF7BEFF0135F1E797
:1024F800BEA10008436810B49C681346A4460A4667
:1025080010BC0149604700BFAD780008F0B44668C8
:10251800094FB468D3640025049B1560C2E90175AE
:10252800D1601365A2F84850A2F84A50059B0349A8
:10253800A446F0BC604700BF67780008B978000877
:10254800036843F0010370B50360044600F0E2FE3F
:10255800094E05466368DB0701D500200AE000F054
:10256800D9FE401BB042F5D9236823F0010323604C
:102578004FF0FF3070BD00BF80A2190003682DE93D
:10258800F74FD3F808A0866854468846174654F88B
:102598000C5B364802F04CFB436801AADB68214615
:1025A800984700285CD10FB9DAF804709AF809B096
:1025B8009AF80A40019B0BEB040909FB0777B3FB68
:1025C800F7F707F1FF39B9F5806F4CD29AF808A0F0
:1025D800B8F1000F09D0B8F1020F36D0B8F1010FE9
:1025E8000CBF4FF000484FF04048304605F0A7FABE
:1025F8002846FFF7A5FF074600BB04F007030BF0CA
:102608000F0B013B0BF1FF3B1B050AF0070A0AF110
:10261800FF3143EA0B4343EA016343EA090343EA10
:102628000803EB612B68DFF8488023F001032B6077
:1026380000F070FE04466B68DB0709D4304602F0F0
:1026480027FD384603B0BDE8F08F4FF08048CCE74F
:1026580000F060FE001B4045EDD94FF0FF37EDE775
:102668006FF00407EDE76FF01507EAE7BEA1000871
:1026780080A219002DE9F84303688568D3F808801B
:10268800C146074659F80C4B284606F0B7F8012210
:10269800002105F1140006F06AFA0122002105F173
:1026A800340006F064FA0122002105F1580006F012
:1026B8005EFA012205F17C00002106F058FA002696
:1026C8006FF07F434FF0FF32C5E926233146EE62B3
:1026D8002E656E67C5F8C860142205F1A00005F0E4
:1026E800DFFC1422314605F1B40005F0D9FC23487B
:1026F80002F09EFA436849461B689847002839D17A
:1027080023681F4E23F00203236000F003FE0546F2
:1027180063689B0726D42046FFF712FF0546F0B9E9
:10272800236843F004032360236823F0F80323603D
:10273800236843F040032A46294623603846FFF7BA
:102748001DFF054658B9236823F00203236020467D
:10275800D8F814309847636943F001036361284649
:10276800BDE8F88300F0D6FD401BB042D0D94FF049
:10277800FF35F4E76FF00405F1E700BFBEA10008DC
:1027880080A2190000282DE9F84304464FF00005FF
:10279800B8BFC41CDFF8449003460F469046A41007
:1027A8002E46A5420CDB012202FA04F414EA080FB3
:1027B80010D13C420ED003F00303F018BDE8F883B3
:1027C80042462846394605F01AFB19F8002001351B
:1027D8001644E6E7C3F34003EFE700BFC7A10008CC
:1027E8002DE9F04F036887689B681C6885B03846F8
:1027F800884605F0A4F9D4F804B2D4F80C3203934F
:10280800B8F1000F1A46594640464546B8BF08F188
:102818000305FFF7B7FF039BAD101A4659468146DB
:10282800284605F0ECFA2B4B1B5C012606FA05FA44
:102838009E40013ED7F8983006FA08F61E43D4F8B1
:102848000032C7F8986043F00103C4F80032D4F8A6
:102858001C3223EA0A03C4F81C324FF0000B05F1BE
:1028680048014FF0FF330246009304EBC1015B4679
:10287800404605F0CEF8D7E92630AD00C5F1200175
:10288800A5F1200200FA01F123FA05F520FA02F277
:102898000D435B461543002B05F00F020FBF0F2AAF
:1028A800D4F81C324AEA0303C4F81C32D4F80032C4
:1028B80007EB890923F00103C4F800320023C9F8A3
:1028C800A030C9F8B430384605B0BDE8F04F02F082
:1028D800DFBB00BFCBA100082DE9F04F1F4683687E
:1028E80091B004461846CDE90E12079305F027F972
:1028F800A3680393236878789B68BC781D683B7845
:10290800BA79F97913F001061CD104F00704C3F36E
:10291800400340EA04201B0143EA401301F0070189
:102928000C9342EA012240F2FF739A4200F08F8032
:102938007979520101F0010142EA011242F00803DB
:10294800059328E040EA0420FC7840EA04403C79FA
:1029580004F01F0440EA046003F0020343EAC003E2
:1029680043F004030C933B7A42EA012242EA034211
:102978007B7A03F01F0342EA03626FF060439A42D6
:1029880068D07B79D20003F0010342EA430242F0A7
:10299800040305930226864B13F80690039BD3F88D
:1029A80098300693039B0122A9F12000C9F1200168
:1029B800D3F89C8022FA01F102FA00F302FA09F72F
:1029C8000B4317F1FF3743F1FF3300240D93069BA8
:1029D800C4F1200123FA04FA08FA01F1A4F1200253
:1029E800A3104AEA010A28FA02F2D5F8041204935D
:1029F80018464AEA020AD5F80C2205F000FAA31094
:102A08009900069BC1F1200E23FA01F2A1F1200CD6
:102A180008FA0EFE42EA0E0228FA0CFC42EA0C0200
:102A280002F00F03089300230993DDE90823002B24
:102A380008BF0F2A28FA04FB0ED086420CD00C1DC2
:102A48005AEA0B0300F0B180372CC0DD24E00126E0
:102A5800002375E70326FBE70AEA07030A930D9BA1
:102A68000BEA03030B93DDE90A23134376D00D9B8E
:102A7800A4F1200107FA01F1C4F12002A34027FACA
:102A880002F20B431343069AA74022EA0707039A68
:102A980028EA0303C2E92673049A012393400693A4
:102AA800D5F80032069A43F00103C5F80032D5F88C
:102AB8001C32D2431340C5F81C328642D5F80412A2
:102AC8006AD0049BD5F80CC206F001074FEA5608F5
:102AD8009F4008FA03F80CEA0203114048EA030889
:102AE800344B0F4313F8009013F806B042463946AA
:102AF8002046FFF747FEABEB090B8246BBF1000F00
:102B08002ED1C5F80472C5F80C820499059B009370
:102B180048310C9B324605EBC101204604F079FF91
:102B2800D5F81C32069A1A43C5F81C22D5F800328B
:102B380023F00103C5F80032631C08D0039B03EBA4
:102B48008A0A0E9BCAF8A0300F9BCAF8B4300798BF
:102B580002F09EFA204611B0BDE8F08F4C446FE7B2
:102B68008144B9F1380FCCDC039B5A46494603F13E
:102B7800A00004F0A8FF039B08905A46494603F1B9
:102B8800B40004F0A0FFBAF1040F02DC089B034371
:102B9800B7D04FF0FF34C3E7D5F80C222046FFF733
:102BA800F1FD37288246B0DDF3E74FF0FF34CEE77A
:102BB800CBA10008C7A100082DE9FF410446007811
:102BC8006378A27810F0010F0E462CD102F00702AC
:102BD8001E4943EA022310F0020F1D481D4A0091C6
:102BE80008BF024660791C4FDFF87C80CDE90120E0
:102BF80000211A4A304603F0D0FF00256379AB4222
:102C08001DDDA31D42465B5D0021304603F0C5FF74
:102C18000135082DF2D1124A0021304604B0BDE832
:102C2800F04103F0BABF43EA0223E2780D4943EAD0
:102C38000243227902F01F0243EA0263CBE73A46D5
:102C48000021304603F0A9FFE2E700BFCCA300084B
:102C5800F0A30008D0A30008EEA30008D4A300083E
:102C6800F4A30008C8A30008E6A300082DE9F0476C
:102C780052F82150089F99462B782D2B06460C4672
:102C880020D1DFF848A04FF0010815F8013F0BB933
:102C9800013417E0652B04D0722B0CD189F8008021
:102CA800F3E72FB952460221304603F076FFECE7EE
:102CB80087F80080E9E7054A0221304603F06DFFF6
:102CC8006FF015042046BDE8F08700BF37A4000860
:102CD8007FB50C460546104603A9002250F824008B
:102CE8001E4605F0ACF8039B1B7843B1144A022139
:102CF800284603F052FF6FF0150004B070BDB0F124
:102D0800005F07D2BEB9B0F5006F14DB0D4B40F27F
:102D1800FF7209E00C4A0B4B002E18BF134640F215
:102D2800FF7218BF6FF0604200920221074A2846DE
:102D380003F033FFDFE7089B1860601CDDE700BF86
:102D4800EAA20008B99A0008F7A30008FCA3000843
:102D58002DE9F0478AB04FF0000904468846164628
:102D68008DF811908DF812908DF81390506801F03D
:102D78005FFF074650B97368744A0221204603F082
:102D88000CFF6FF015000AB0BDE8F0870DF11203D3
:102D9800009302210DF1110332462046FFF766FF2A
:102DA800011EEEDB9DF81C209DF812309DF81100E5
:102DB80063F3000260F341028DF81C2005AA00921B
:102DC80020463246FFF784FF051EDADB9DF81C30EB
:102DD800059A9DF812A043EA022307939DF817303D
:102DE80003F01F029DF8203023F01F0313434545CD
:102DF8008DF8203076D04A4606A956F8250005F009
:102E08001EF8069B1B782BB1514A0221204603F07D
:102E1800C4FEB6E7B0F1005F09D2BAF1000F18D1CD
:102E2800B0F5006F15DB4B4B40F2FF720AE04A4ADF
:102E3800484BBAF1000F18BF134640F2FF7218BF93
:102E48006FF0604200920221444A204603F0A5FE3A
:102E580097E7691C95D4BDF82430ADF8220003F437
:102E68006043C0F30C4018434145ADF824004DD1F0
:102E78009DF821309DF813009DF8122060F300039F
:102E88008DF82130079B002A4BD09DF82020BDF8F3
:102E9800241002F01F02120642EA1323BDF8222072
:102EA800C1F30C0142EA01422D490091CDE901200C
:102EB80000212C4A204603F070FE07ABCDE9004301
:102EC800294A2A4B2A493846FFF720FB031E36DADF
:102ED8005A1C2ED1274A0221204603F05EFE6FF0CD
:102EE800040050E7BAF1000F40F2FF7308BF1A461A
:102EF800BDF8243018BF6FF0604203F4604343EA22
:102F08001243ADF82220ADF82430B1E70023009336
:102F180032460DF113032046FFF7A8FE0028A7DA72
:102F28002FE7BDF822201449C3F30A23C2F30A028B
:102F3800BBE7124A0221204603F02FFECFE72046C6
:102F48000F4A002103F029FE00201CE7E1A1000838
:102F580003A20008B99A0008F7A3000819A20008FC
:102F6800CFA1000858A2000868060020C12B00085D
:102F78009008002093A20008D8A10008B6A2000873
:102F8800D4A2000873B505461646506801F050FEF5
:102F9800044648B97368134A0221284603F0FDFD28
:102FA8006FF0150002B070BDB068002201A904F0EE
:102FB80046FF019B1B7806462BB10B4A0221284687
:102FC80003F0EBFDECE7002804DA084A0221284662
:102FD80003F0E3FD63682046DB683146984700202C
:102FE800E0E700BFE1A10008E3A20008FEA2000894
:102FF8002DE9F0478AB000230446894690468DF8AB
:103008000E308DF80F30506801F012FE074638B9BF
:10301800D8F80430484A0221204603F0BEFD0BE0F0
:103028000DF10F03009302210DF10E0342462046D5
:10303800FFF71CFE011E04DA6FF015000AB0BDE8A8
:10304800F0879DF818209DF80F309DF80E0063F367
:10305800000260F341028DF8182004AA009220466D
:103068004246FFF735FE051EE6DB9DF81830049A48
:1030780043EA022306939DF8133003F01F029DF8DC
:103088001C3023F01F0313438DF81C30A9EB0503F4
:10309800082B48D90823294ABDE7002205A958F872
:1030A800260004F0CCFE059B1B782BB1244A022194
:1030B800204603F072FDBFE730F0FF0301D0214A3C
:1030C800F5E70AF8010B0136B145E6D8751BEDB2F4
:1030D800002E8DF81D50AFDB9DF80F20069B32B3F4
:1030E8009DF81C2002F01F02120642EA1323164A1A
:1030F800CDE900250021154A204603F04EFD0023A6
:103108007A680093556806A94FF0FF323846A847F9
:10311800002893D003460E4A2046022103F03DFDC5
:103128006FF004008AE72E460DF11E0ACCE7C3F3C0
:103138000A23084ADCE700BFE1A100081EA3000833
:103148003DA3000859A30008CFA100087AA30008EE
:10315800ADA30008D8A100080B4B9A6819689868B5
:103168000A4B11F4803F10B5094901D1824205D2BA
:103178001A680C6822441A60034A12681B680A68B5
:103188001344181A10BD00BF10E000E0C806002064
:10319800C406002008B5FFF7DFFF0C4B0C4A18687F
:1031A80011680844106000221A600A4A116844F243
:1031B800A013401AB0FBF3F003FB0013136002F0F6
:1031C8007FFCBDE8084000F0BBB800BFC80600207F
:1031D800C0060020BC060020094B102283F82320DB
:1031E800084B44F29F121A60074B00201860074BE7
:1031F8005A6098601A6842F007021A60704700BF68
:1032080000ED00E0C4060020C806002010E000E041
:1032180070B504462A4D51B1431C0ED1294A136892
:1032280023F0010313604FF07F432B6070BD40F221
:10323800E533B0F1FF3F08BF1C464FF01003EFF332
:10324800118683F31188BFF36F8FFFF785FF1E4B3D
:103258001A68104418601D4B00221A601C4B1B682A
:10326800C21A0DD540F21A432B602B68154A013B50
:1032780053600023936086F31188BFF36F8FD5E7FF
:10328800013C24EAE47440F2E5318C4202F58342C1
:10329800A8BF0C46181A44F2A0111F3201FB0424DF
:1032A80040F21A43B4FBF1F401FB04049C4204D934
:1032B800084B9C42D8D82C60D7E71C46FBE700BFD8
:1032C800C406002010E000E0C0060020C806002068
:1032D800BC0600202094FF0010B54FF01003EFF358
:1032E800118483F31188BFF36F8FFFF735FF074B06
:1032F800074A1B6812689B1A184484F31188BFF3A5
:103308006F8F44F2A013B0FBF3F010BDC00600208D
:10331800BC06002010B54FF01003EFF3118483F3BF
:103328001188BFF36F8FFFF717FF044B1B68184412
:1033380084F31188BFF36F8F10BD00BFC006002053
:1033480004488168006A884203D003494FF08052DC
:103358000A6070475808002004ED00E0094A0A494D
:10336800936809689966094958664B6843F0805321
:103378004B60002383F31188BFF36F8F9368986EB7
:10338800704700BF580800201C98000800ED00E0B6
:1033980012498A684FF028001044EFF3098C80E83E
:1033A800F01F102080F31188BFF36F8F0C4F4FF080
:1033B80000660A6A8A603E60506E0023536680F396
:1033C800118804B5104604F032FDBDE8044002F14E
:1033D800280090E8F01F8CF30988704758080020EF
:1033E80004ED00E01EF0040F0CBFEFF30880EFF3CC
:1033F8000980816911F8021C0229FFD001B504F087
:103408000BFD01BD43B2002B08DB012200F01F00B9
:1034180002FA00F05B09024A42F82300704700BF35
:1034280000E100E043B2002BA8BF03F1604301F1C3
:1034380001014FEA0111AEBF03F5614300F00F002F
:10344800034BC9B2ACBF83F800131954704700BFCF
:1034580014ED00E073B51E460A9B00938C18099B77
:10346800054605F099FBA4F120030A4A23F0070357
:1034780022F001029A61069A5A60079A9A60089A9D
:10348800DA604FF080721E60DA61AB6400236B660D
:1034980002B070BD05640008F8B505460C4617462D
:1034A8001E4600F06BF90A4B3C4428469D6024F008
:1034B800070404F0BCFC304684F30988002163B695
:1034C80081F31188BFF36F8F0022002302F096FF6B
:1034D80058080020014910220A60704710ED00E0EA
:1034E800404080F3118830BF704700BFEFF3088079
:1034F800EFF30981724601B500F092F801BD00BFF3
:1035080030BFFFF7FDBF00BF08B5084B084A23F0DE
:103518007F039360BFF34F8FBFF36F8F01F0B4FB4E
:1035280001F0CAFB00F0F8F801F00AFC00000008FE
:1035380000ED00E001B5EFF30580A0F110004FEABF
:10354800C0000449014409C99847BDE8014002493F
:10355800084700000C8F000849330008102080F34A
:10356800118808484FF40061401880F30988EFF388
:1035780014800221084380F31488BFF36F8FFFF78C
:10358800C3FF0000C01A00200C4B9A6A9A6A9A6A14
:10359800920708D55A6B9A6A120604D518B19A6A26
:1035A80022F080029A62054B9A6A9A6A9A6A9A6A23
:1035B800002042F0FF029A620870704700ED00E0B8
:1035C8000D4B9A6A9A6A9A6A920508D59A6B9A6A12
:1035D800120404D518B19A6A22F400429A62064B82
:1035E8009A6A9A6AD20558BF9A6A9A6A002042F47F
:1035F8007F429A620870704700ED00E0074B9A6AB4
:103608009A6A9A6A9A6A9A6A9A6A9A6A6FEA0242FD
:103618006FEA12429A620020704700BF00ED00E096
:1036280070B5364B5B688AB0C3F30803002585F391
:103638001188BFF36F8F02F07F44B4F17F4F12D12E
:1036480002F00C04082C0ED014074EBF0E46064696
:1036580001250022033B8DF80720032B47D8DFE81C
:1036680003F0043E423B2E46F3E7244BDA6A920706
:103678003DD4DC6A14F0804408D028331B78EBB1C1
:103688000DF107010120FFF77FFF04469DF8073081
:1036980093B92022314602A804F0D8FC099B45B30F
:1036A800C3F3080222B96FEA53236FEA432309934D
:1036B80002A9204604F0AEFB0AB070BD104B1B787F
:1036C8002BB10DF107010120FFF77AFFDDE70D4B64
:1036D8001C88A4B2002CD9D0FFF790FFD5E70DF1D4
:1036E80007010020CFE70DF107010020ECE70024D7
:1036F800CCE723F4FF7323F00103D8E700ED00E0E3
:1037080029ED00E02AED00E0024A536943F0100376
:103718005361704700ED00E0044800231021C218EF
:103728000133522B82F80013F9D1704700E100E011
:1037380038B505464FF01003EFF3118483F3118871
:10374800BFF36F8F05F037FA0A4B9B68AB420BD17A
:10375800094B5A68C2F3080212B92046FFF7FEFD6A
:103768005A6842F080525A602046BDE8384005F059
:1037780050B900BF5808002000ED00E01FB5084B05
:103788000193084B0293084B039301AB0093074A3C
:10379800074B0121684600F091F805B05DF804FB7D
:1037A800000000200000000000000B0600000020C0
:1037B80000000220F0B5204F00268E4201DB1046A3
:1037C800F0BD50F826C0DCF8044094B35BB104F1B6
:1037D800FF3E14EA0E0F1AD11F2C18D9DCF800503E
:1037E8001EEA050F13D1202CDCF80050DCF808C0C5
:1037F800D2B20FD9B4F1004F0ED8013CB4FA84F418
:10380800C4F11F046400072A4CEA040406D96FF0C7
:103818001502D4E70824F6E73E24F4E725F01F054F
:10382800154345F0100544F00104BA60FD6001320B
:103838003C610136C1E700BF90ED00E0034B052273
:103848005A60BFF34F8FBFF36F8F704790ED00E062
:10385800BFF35F8F014B00225A60704790ED00E084
:1038680013490868082810B51ED8FFF7F1FF114C56
:1038780049680022904201F10C0105D10E4B1870E5
:10388800FFF7DCFF002010BDA26051F80C3C23F0CC
:103898001F03134343F01003E36051F8043C43F063
:1038A800010323610132E5E74FF0FF30EBE700BF8A
:1038B8009C96000890ED00E07A09002010B5034CB2
:1038C80001232278FFF776FF207010BD7A090020C7
:1038D80008B5084A00231278FFF76CFF10F1160F9D
:1038E80003D0054B0022072800DD08BD98601A6147
:1038F8000130F8E77A09002090ED00E02DE9F04F5B
:103908009FB01E460023019004910093134613F8BC
:10391800010B059358B1252800F085800499019B77
:103928009847013040F00D844FF0FF330093009822
:103938001FB0BDE8F08F232C6CD061D8002CF6D0D6
:10394800202C0A9B08BF01230A93CDF81480DDF8C8
:103958001480B94818F8014B214604F020FB0028D0
:10396800E9D12A2C66D156F8043B0793002BBFBF38
:103978005B42079301230B93059B98F8004003F1E2
:1039880002082E2C7CD198F800302A2B75D156F8D5
:10399800045B08F1010818F8014BA848214627469E
:1039A80004F0FDFA00286ED04346682F13F8014B47
:1039B800059307D1682C05D108F1020398F8014056
:1039C80005934827672C7CD8652C80F03981472CD3
:1039D8005DD8452C80F03481002CA8D0252C00F02F
:1039E800AC830499019B2520984701309CD0049909
:1039F800019B20469847013096D0009B0233A2E3F2
:103A08002D2C0AD0302C0BD02B2C099B08BF01235E
:103A180009939AE70123069397E701230B9394E709
:103A28000123089391E700230893CDE909330B9309
:103A380006938CE7A4F13003092B0790A1D80A223A
:103A4800DDF8148018F8014BA4F13003092B98D83D
:103A5800079BCDF8148002FB0344A4F130030793BD
:103A6800EEE701FB0535303D9046424612F8013B32
:103A7800A3F130000928F4D98DE700250A21F4E7DD
:103A88004FF0FF3589E7CDF8148007469AE7632C95
:103A98005AD020D8582CA4D16F2C06F104093168CB
:103AA80040F01C83069B002B00F00A8330238DF81E
:103AB8005C30002940F00F838DF85D1088460126A0
:103AC80026E0702C00F0E78228D86E2C00F0D08217
:103AD800E2D8692C85D13468002C06F1040980F2FB
:103AE8009C802D238DF85C3061420DF15D063046D7
:103AF8000A2204F0F7FA099B064417A8361A002B85
:103B080040F024830A9B002B40F020834FEAD478AE
:103B1800002D22DA00252F46AA46E5E0752CBBD0F9
:103B2800782CB9D0732C7FF45CAFB146002D59F8CE
:103B3800043BB8BF6FF000450026B54240F0BB8299
:103B48002E460025A84609E0B1464FF0000859F86E
:103B5800043B8DF85C300126454617AB05EB08029F
:103B68000025921B2F46AA4622EAE2729119069175
:103B7800079990190C1A0B9911B9002C00F30483BA
:103B880003EB080B5B4540F0018312F1FF3280F034
:103B98000D83A6EB0806BAF1000F11D09BF80000C0
:103BA8000BEB0608A0F13003092BA8EB0B0640F23B
:103BB8000883D04618F1FF3880F00C83A6EB0A067C
:103BC800AFB10BEB06081BF801AB0499019B5046FB
:103BD800984701303FF4A8AEBAF12E0FA8EB0B06B8
:103BE800F1D1B846B8F1000F00F3FD82F61B95B18C
:103BF8009BF800000BEB0608A0F13003092BA8EB9B
:103C08000B0640F2FB822E2800F0F8822F46002F88
:103C180000F3FD82761B5E440CE3099B23B12B2342
:103C28008DF85C30214660E70A9B0BB12023F7E74B
:103C3800214617AE5BE700BFE8A50008EEA500081F
:103C480006F1070929F00709F9E80223D80240EA32
:103C58005250D60220F0004002960390DDE9026738
:103C6800002AC3F30A5173F10003CDE9126743DA5E
:103C78002D238DF85C300DF15D0740F2FF739942FA
:103C880055D1DDE902231343A4F1410407F1030BE5
:103C980042D1192C3AD849233B704E237B704623D6
:103CA800002517AEBB70FD70ABEB060B2F46AA467E
:103CB800099B002B40F0D9810A9B002B40F0D5814D
:103CC8009DF85C80A8F12D03D3F1000848EB0308A8
:103CD8001EAB4344BB4413F81C3C303B0BEB0A06B9
:103CE800092B2E4400F23782089B002B00F0368205
:103CF800079B9A1B17AB37E7099B0BB12B23B8E738
:103D08000A9B0BB12023B4E717AFB6E769233B70D2
:103D18006E237B706623C3E7192C99BF4E2341227B
:103D28006E23612294BF3B703B707A70B8E7029BA8
:103D380003980B430C93CB1703430D93DDE90C2336
:103D4800462C08BF6624134300F0FF80002900F0CA
:103D58009F80139B43F00043A1F2FE381393002683
:103D680018F1020FC0F2A8806FF0004A4FF0000B64
:103D7800B8F1000F00F3CC8012A808F1010804F094
:103D8800D3F9B8F1040FF7D1002D04F0DF03B8BF61
:103D98000625472B40F0E180F21C02DBAE4240F3DF
:103DA800D780023CE4B2002D00F0DD80069B013D87
:103DB800002B40F0D880002DD4BF4FF000084FF002
:103DC8000108662C40F0D18016EB050A40F1D58039
:103DD8001023119366244FF0000A00224FF000636D
:103DE800CDE914231AF1FF3A80F0C980129B149A86
:103DF80015999B18139A41EB0202CDE9123202F091
:103E080070430E9300230F93DDE90E23134306D06E
:103E180012A804F09BF912A804F086F90136662C62
:103E280040F0C780002E40F3B180119B002B07DDC6
:103E380011A912A804F0B6F9013E07F8010BF4D154
:103E4800B246BB460026069B13B9002D40F3AF804F
:103E58002E230BF8013B002E00F0A780002D40F325
:103E6800A6807742AF42A8BF2F46ED1B002D03DD89
:103E7800119B002B00F39180B8F1000F40F0AF8048
:103E8800002317AE8BF80030ABEB060B10E70139B7
:103E9800029BDB180293039B5B410393DDE902233A
:103EA800002A73F10003F2DADDE90223CDE91223D7
:103EB8004FE712A804F038F9DDE9122C4FF0000B97
:103EC800B9480021594508BF604508F10108F0D3F9
:103ED8000520A2FB002300FB0C33CDE91223DC46AE
:103EE800013E6FF0004A4FF0000B00218B4508BFE0
:103EF8009A4506D2BCF1000F3FF432AFCDE9122348
:103F08002EE792185B4108F1FF384FF0010CECE7FF
:103F180012A804F01BF9DDE9121008F1FF38013688
:103F28004FF0000C00239B4508BF824506D2BCF128
:103F3800000F3FF41DAFCDE9121019E749184041B1
:103F480008F1FF384FF0010CECE70026B04613E704
:103F5800069BAD1B23B966242DE74FF0000830E718
:103F68004FF0000830E74FF0000805F1010A102370
:103F78009A451193A8BF9A462FE76624F7E714A835
:103F880004F0E4F814A804F0CFF82BE7BB4630237C
:103F98000BF8013B4FF0000A55E711A912A804F0ED
:103FA80001F9013D0BF8010B60E737465EE7002792
:103FB80062E711A912A804F0F5F8069B38703028BA
:103FC80018BF06F1FF36002B3BD1002D39DC07F175
:103FD800010BB8F1000F45D04FF0000A57465B4679
:103FE8001BF8012D302AFAD02E2A18BF9B4600252F
:103FF80004F0DF03452B7FF443AF002E5A46BABFC7
:1040080076422D232B23632E02F8024B8BF80130C6
:104018000ADD642196FBF1F303F130000BF1030292
:104028008BF8020001FB13660A21934696FBF1F315
:1040380001FB136603F1300030360BF8020B5670A3
:104048001EE72E2307F1020B7B70002DC1DD119BAB
:10405800002BBEDD11A912A804F0A4F8013D0BF84D
:10406800010BF2E7C2464746C2E74FF001082FE6C8
:10407800B146682F59F8043B05D001DC482F07D01A
:10408800009A1A6001E0009A1A804E46059A3DE4AB
:10409800009A1A70F9E7B14647F63003102259F82A
:1040A800041BADF85C300DF15E0004F01BF84FF016
:1040B8000208861C2CE59A5D002A4AD001363CE5A8
:1040C80017AC0822204604F00DF817AEA61B0644CC
:1040D8004FF000081CE50DF15D04F2E7752C05D1E1
:1040E8000A2217A803F0FEFF0646F1E7069B93B1E4
:1040F80047F63003ADF85C300DF15E071022384604
:1041080003F0F0FF582C08D017AE069BBE1B0644E0
:104118004FEA4308FCE417AFF0E717AA12F8013B8F
:10412800A3F16101192903D8203B02F8013CF5E706
:1041380012F8013C002BF1D1E6E704992046FFF77D
:10414800EEBB009B01330093B1469EE74FF0010898
:10415800DEE41546F6E417AB002207E517AB089A2C
:1041680004E5CDE907320499019B202098470130E6
:10417800DDE907323FF4D8AB1BF1FF3BF1D20099E0
:10418800214400915C46FBE4A346F5E713F8010BD4
:1041980007930499019B089298470130DDE907329B
:1041A8007FF4F0ACFFF7C0BB323333330499019B83
:1041B8000792302098470130079A7FF4E6ACFFF762
:1041C800B3BB0499019B984701303FF4ADAB1BF892
:1041D800010FE7E40499019B3020984701307FF4F0
:1041E800E9ACFFF7A1BB0499019B30209847013047
:1041F80008F1FF387FF4F6ACFFF796BB0499019BF2
:10420800984701303FF490AB1BF8010FF4E4049990
:10421800019B30209847013007F1FF377FF4F7AC56
:10422800FFF782BB04991BF8010B019B98470130EB
:104238003FF47AABA6EB0B03002BF3DC009B069A4A
:10424800002C134400937FF720AF254606E004991D
:10425800019B2020984701303FF466AB15F1FF35EC
:10426800F5D2009B234400930FE700BF014B186071
:10427800704700BFD829002008B505210248FEF77D
:1042880021F9002008BD00BFBC960008036810B5DE
:104298009C68064800F0CCFC436804F108011B68E0
:1042A8009847002818BF6FF0040010BDBEA1000891
:1042B8002DE9FF411D4603689F6805F080030B4305
:1042C8008046144605D06FF02206304604B0BDE89B
:1042D800F08101A9284603F0FDFF06460028F4D125
:1042E8000346019A3868214604F011F810B16FF0BE
:1042F8000406EAE715F00206796851D04346414AB8
:104308002046FDF7C9FF002878D17E683E4800F0B6
:104318008FFC3E49024603C902AB83E8030051689B
:1043280010460F681946B8470F2C24DC624202F089
:10433800030204F0030358BF534204339A00002CCD
:104348004FF00F0303FA02F32246B8BFE21C43EA18
:10435800A203DAB2920002F1804202F59C321B0CF1
:10436800916821EA030193FAA3F3B3FA83F306FAF7
:1043780003F30B439360AA06A5D56B060ED415F07C
:10438800040F14BF012102212046FDF76DFF2046CE
:10439800FDF746FF0028AAD1002696E70321F3E798
:1043A8000F2C28DC634203F0030304F0030258BF18
:1043B8005A4204329300002C4FF00F0202FA03F223
:1043C8002346B8BFE31C42EAA302D3B21048023323
:1043D800120C50F82330134092FAA2F2B2FA82F289
:1043E80023FA02F29142D7D12046FDF731FF204649
:1043F800FDF764FF69E76FF01502F3E76FF00F064A
:1044080063E700BFE1810008BEA10008DC92000854
:1044180000380140F0B51F4689B08668A2B39A42B9
:1044280032D303689B6801F180441968334B013C1F
:1044380099424FEA84045ED0B1F1804F27D03048CA
:1044480021F40063834253D021F4805500F5806045
:1044580085424DD021F4806500F50060854247D043
:1044680021F4804500F57440854241D000F5705034
:1044780083423DD0234B99423DD003F58063994256
:1044880039D06FF0220031E06FF015002EE084B1D2
:1044980024F00803042B03D0082C01D03C2CF0D1C5
:1044A800B1F1804F05D0184B994202D0B2F5803F48
:1044B800E7D80025336C3160013A7360F2603561EA
:1044C800B5607561304604F0F2F8602301A9224610
:1044D800304601930395CDE90455CDE90655029779
:1044E80004F0FFF82146304604F06BF909B0F0BD3E
:1044F800002CCDD1D7E7002CCAD1D7E70000014066
:1045080000040040001C0040000C004038B503685F
:1045180085689C68064800F08BFB436868641B68E4
:10452800211D9847002818BF6FF0040038BD00BF50
:10453800BEA1000803689B681B685A6942F0010223
:104548005A61104A934213D0A2F54C4293420FD0BD
:1045580002F5806293420BD002F58062934207D045
:1045680002F58062934203D002F54442934203D19C
:104578001A6942F040021A61DA6842F48072DA601D
:10458800704700BF0010014003689B681B685A69A8
:1045980022F001025A61104A934213D0A2F54C420C
:1045A80093420FD002F5806293420BD002F58062ED
:1045B800934207D002F58062934203D002F5444249
:1045C800934203D11A6922F040021A61DA6822F490
:1045D8008072DA60704700BF001001402DE9F8438F
:1045E80003680A799B6886681C68012A0D4675D09D
:1045F800022A0CBF4FF48061002195F8058095F8D8
:104608000690EF79B8F1020F96BF374B4FF4005E72
:1046180033F818E0B9F1040F0CBF4FF480530023AE
:10462800033A012F14BF4FF0000C4FF4407C012ACD
:1046380057D918F0FD0F54D0B9F1020F51D987B1ED
:104648002A4A94420BD0A2F54C42944207D002F574
:104658008062944203D002F54C42944241D1012F2A
:104668003FD1E26822F40052E260E26802F4C062DC
:1046780091421FBFE76827F4C0670F43E7602269CC
:1046880002F4405296451FBF216921F4405141EA86
:104698000E012161E268296802F4805293421FBF2B
:1046A800E26822F480521A43E260636903F44073BB
:1046B8009C451FBF636923F4407343EA0C0363619D
:1046C8003368994203D003F098FF2B683360E3689E
:1046D80043F40053E3600020BDE8F8834FF4C06161
:1046E8008BE76FF02200F7E72098000800100140E0
:1046F80003682DE9F0419F68D0F808803E460546DA
:1047080056F80C4B1A4800F093FA4368C8F80400AE
:1047180031461B689847064638BBE36823F40053C4
:10472800E360E36843F00C03E360E36823F4B05309
:10473800E360236923F4405323613B7D33B12B6845
:104748009B681A68536943F4407353612846D8F844
:10475800001003F052FFE36843F40053E360284677
:10476800BB6898473046BDE8F0816FF00406F9E76A
:10477800BEA10008036A23F001030362036A70B54F
:10478800446882690D6822F073022A438D6823F019
:1047980002032B430E4DA84202D00E4EB04210D158
:1047A800CE6823F008033343A84223F0040302D061
:1047B800084DA84205D1D1E9055624F44074354383
:1047C8002C43446082614A684263036270BD00BF43
:1047D8000000014000040140036A23F4807303626F
:1047E800036A70B54468C2690D6822F073022A43EF
:1047F8008D6823F4007343EA0523114DA84203D0C2
:1048080005F58065A84214D1CD6823F4006343EA16
:1048180005230B4DA84223F4806303D005F580657A
:10482800A84206D1D1E9055624F44054354344EA58
:1048380005144460C2614A68C263036270BD00BF68
:1048480000000140036A23F480530362036A30B511
:104858004468C2690D6822F4E64242EA05228D687E
:1048680023F4005343EA0533084DA84203D005F565
:104878008065A84204D14D6924F4804444EA851433
:104888004460C2614A680264036230BD00000140AE
:10489800304A0368904212D0B0F1804F0FD0A2F591
:1048A8007C4290420BD002F58062904207D002F51C
:1048B8008062904203D002F57842904219D14A684A
:1048C80023F070031343234A904229D0B0F1804F5C
:1048D80026D0A2F57C42904222D002F58062904216
:1048E8001ED002F5806290421AD002F578429042BA
:1048F80016D0194A904213D002F5806290420FD028
:1049080002F5806290420BD0A2F59832904207D00F
:1049180002F58062904203D002F58062904203D192
:10492800CA6823F4407313434A6923F0800313438E
:1049380003608B68C3620B688362064B984203D09E
:1049480003F58063984201D10B6903630123436136
:10495800704700BF0000014000400140036A23F097
:1049680010030362036A70B5446882690D6822F413
:10497800E64242EA05228D6823F0200343EA051344
:10498800104DA84203D005F58065A84214D1CD6822
:1049980023F0800343EA05130A4DA84223F040039D
:1049A80003D005F58065A84206D1D1E9055624F45F
:1049B8004064354344EA8504446082614A688263FE
:1049C800036270BD0000014010B504460122006872
:1049D80003F0E9FE23680B4A934203D002F5806294
:1049E800934203D15A6C42F400425A649A6802F026
:1049F8000702062A1EBF1A6842F001021A60002048
:104A080010BD00BF00000140054B1A681B6802F08A
:104A1800007203F00063134314BF012000207047A5
:104A280000380240204B1B6813F4804310D01F4B02
:104A380098420CD81E4B984201D9042308E01D4B1C
:104A4800984228D81C4B984227D9022300E0052316
:104A5800154A1268520411D4184A904208D9154AC6
:104A6800002B08BF0423904208D8134A904205D867
:104A7800134A904202D9002B08BF012311490A6842
:104A880022F00F021A430A60086800F00F00C01AEB
:104A980018BF012070470323DAE7094B984294BFF7
:104AA80000230123D4E700BF0070004080D1F00844
:104AB800000E2707804A5D0500879303001BB70097
:104AC80080C3C901003C02400B68244AC3F30313A6
:104AD80070B5234DD45C2B6820FA04F4A3420E462B
:104AE80027D3204B1A6842F080721A601A68920124
:104AF800FCD59A68316822F0F0020A439A609A68F5
:104B080022F0030242F002029A60164B9A6802F001
:104B18000C02082AFAD19A68716822F4E0520A4312
:104B28009A609A68B16822F460420A439A60002049
:104B380005E074B12046FFF775FF0028D1D02B6837
:104B4800A34203D93CB12046FFF76CFF00B92C60A3
:104B580070BD0120F3E70120FAE700BF37A600087F
:104B6800EC290020003802402DE9F0410D460446AA
:104B780090461946FFF748FF002838D1D8F800605A
:104B8800D8F80470D8F8083006F03F00B4FBF0F409
:104B9800C7F308004443180C01304000B4FBF0F0A0
:104BA800144C226892030FD42268012D0CBF42F4E2
:104BB800802222F480222260226842F4803222601D
:104BC8000C4C22689203FCD50A4C0B4A65682A40B3
:104BD80042EA8712324342F480026260626822F439
:104BE80040321A436260BDE8F041FFF76DBF012013
:104BF800BDE8F081003802400080BFFF0A4B70B565
:104C080018700A4B53F820400130002653F8205002
:104C1800A54200D870BD236820465B68984700B15C
:104C280066600C34F4E700BF7B0900200898000890
:104C3800104B70B5104C05461E469C4204D10E4CD4
:104C4800B44209D1002412E062681AB122681268DD
:104C5800AA420CD00C34F0E763680BB90C34EFE7C8
:104C680023682846196803F0AFF90028F6D12046D2
:104C780070BD00BF002B0020F8290020014B986868
:104C8800543070475808002008B50748074A0021E3
:104C9800121A03F005FA0648064A0021121ABDE85E
:104CA800084003F0FDB900BF000000207C09002087
:104CB800000000100000001009480A4A0A4908B517
:104CC800121A03F0C3F9094A09490A4803F0BEF960
:104CD80009480A4A0A49121ABDE8084003F0B6B959
:104CE8004C2900203C2B0020ACA600080000000046
:104CF800ACA6000800000020000000100000001012
:104D08009CA8000808B50220FFF778FF084A09495F
:104D1800094801F01CFD0320FFF770FF00F0E8FDD3
:104D2800FBF738FD054A137B23F00103137308BD15
:104D3800B99A000847A6000867A60008EC070020F3
:104D480080B5364BA2B083F30888354C354E63697D
:104D580043F4007363610025F02384F82230E5777B
:104D680025766576A576636A43F4E0236362FEF7E9
:104D7800CBFCFEF7AFFB4FF0FF33A362E36207AB58
:104D88006C222946184603F08BF9274C0127A060AE
:104D980028468DF82970FFF731FF3846FFF72EFFB8
:104DA80000F006FC214B26624FF48062CDE90473C3
:104DB800CDE902551E4B1F49CDE90055304600F09C
:104DC80015FD737B23F0040213F01B0F727304D1DB
:104DD800B36913B9304600F035FA174B174D0593F0
:104DE80001220F23CDE903320023CDE901330093DB
:104DF8004FF4A072124B1349284600F0F7FC6B7B66
:104E0800E56023F004036B730F4B0A490548C4E9B6
:104E180006334FF48062064BFEF73EFBC0220020AB
:104E280000ED00E0EC070020580800208EA60008DE
:104E38000D4D00088015002093A60008800700206B
:104E4800A98E000880190020700800202DE9F04183
:104E5800134604460F4600F108084FF01002EFF31E
:104E6800118682F31188BFF36F8F016AC26891427D
:104E78002ED203F039FEA2680546394698B140693A
:104E880003F0E4F80023AB666B7BDB0604D1AB6967
:104E980013B9284600F0D6F94046314603F0AEFD76
:104EA8000020BDE8F081E06903F0D0F8E369A2686A
:104EB80013446269E361934204BF2369E361236A8F
:104EC80001332362002086F31188BFF36F8FE8E770
:104ED8004BB1064A92683146576102464046BDE8E2
:104EE800F04100F0E1BA6FF04F00ECE758080020FD
:104EF8002DE9F04104461346084604F108074FF02F
:104F08001002EFF3118682F31188BFF36F8F226AC4
:104F1800002A37D0A268A16903F098F8A369A268AB
:104F280013446269A361934204BF2369A361236A9E
:104F3800013B2362204603F0D7FD054600282ED00A
:104F4800A2684169E06903F081F8E369A268134443
:104F58006269E361934204BF2369E361236A013311
:104F680023620023AB666B7BDB0604D1AB6913B904
:104F7800284600F067F93846314603F03FFD002027
:104F8800BDE8F0814BB1084A926838465161224623
:104F98003146BDE8F04100F087BA6FF04F0086F364
:104FA8001188BFF36F8FEBE758080020F8B5044667
:104FB8000F464FF01003EFF3118583F31188BFF309
:104FC8006F8FC26830495AB180688E68B04215D078
:104FD800B7B985F31188BFF36F8F6FF00F000CE03E
:104FE8008B6893F90E30236101328B68E260A3600D
:104FF80085F31188BFF36F8F0020F8BD2369F2E7AE
:1050080090F90E3096F90E109942A8BF194621EA78
:10501800E17199422BDA00F089FA06463B462246AE
:1050280029461A4800F040FA0028E6D04FF010034D
:10503800EFF3118583F31188BFF36F8F236821691C
:105048009C4207D033B193F90E309942A8BF194654
:1050580021EAE171A06890F90E30994209D16EB148
:1050680029460A4803F0CAFC6FF00A00C5E7002683
:10507800D4E700F05BFA0028F2D1F0E785F3118855
:10508800BFF36F8FF0E700BF580800207C090020AD
:1050980038B51D4B9A68D37B013B0446D373C3686C
:1050A800012B05D0013BC360BDE8384000F0AEB825
:1050B8004FF01003EFF3118583F31188BFF36F8F5F
:1050C8000169806890F90E30994201D000F02EFAFB
:1050D800204603F009FDA06080B190F90E202261FE
:1050E80000228266427BD20603D183690BB900F0A5
:1050F800A9F82946054803F081FCD5E7E06085F367
:105108001188BFF36F8FCFE7580800207C09002073
:1051180010B5084C23685BB1FEF7DEF82368064A31
:105128001844106100211846BDE8104003F088BDFE
:1051380010BD00BF8C0800205808002010B54FF0A3
:105148001003EFF3118483F31188BFF36F8F084BBB
:1051580000221A61074A0A2343431360064B196069
:10516800FFF7D6FF84F31188BFF36F8F10BD00BF20
:10517800580800208C080020880800204FF01003F1
:10518800EFF3118183F31188BFF36F8F044B9A6893
:10519800D37B013BD37381F31188BFF36F8F7047C3
:1051A80058080020094B03F12402824205D19B686C
:1051B8008B4202D14B7BDB0606D1D1E9003213606A
:1051C8005A600023C1E90033704700BF5808002027
:1051D80038B50D4C024604F1240003F04EFC054698
:1051E80000B9E568A3684AB95A7BD20606D1AA690C
:1051F80022B9DA897F2A01D9236238BD9D4201D0BC
:10520800FFF786FF2562F8E75808002010B54FF031
:105218001003EFF3118483F31188BFF36F8F084BEA
:105228009A68D37B0133D3730020FFF7D1FF84F34F
:105238001188BFF36F8FBDE8104003F0F6BB00BFC5
:1052480058080020F8B54FF01003EFF3118483F3EA
:105258001188BFF36F8F154A114651F8243F8B42CE
:105268001DD0E3B1966A90F90E5093F90E70AF42D3
:1052780010DD5A68C0E9003210605860437B43F083
:10528800400343730020FFF7A3FF84F31188BFF3A3
:105298006F8FF8BDB34202D01B68002BE5D1936A2B
:1052A8004360936A016018609062E7E7580800203D
:1052B800F8B504464FF01003EFF3118583F3118816
:1052C800BFF36F8F437B5A0603D501461748FFF794
:1052D80069FF174AD2E9093002F124018B421FD035
:1052E800F3B194F90E6093F90E70B74213DD596863
:1052F800C4E900310C605C60637B906843F0400354
:105308006373031B58425841FFF762FF85F3118806
:10531800BFF36F8FF8BD834202D01B68002BE2D128
:10532800C4E90010936A1C609462E5E77C080020D9
:1053380058080020154A164938B50C689368A342E6
:10534800144603D1BDE83840FFF7E2BE00250D60E2
:1053580010490968B9B1D9897F2914D80E4993F938
:105368000E5009688D420EDB0C498B420BD09969AF
:1053780049B91169814203DC1846FFF799FFE1E753
:10538800091A116138BD00232361FBE75808002082
:10539800840800208C08002088080020800700204E
:1053A80038B504464FF01003EFF3118583F31188E5
:1053B800BFF36F8F437B5A0607D501460948FFF7AD
:1053C800F1FE637B23F040036373074B9868031B6C
:1053D80058425841FFF7FCFE85F31188BFF36F8FE1
:1053E80038BD00BF7C0800205808002070B504466E
:1053F8000D461646FFF7D4FF637B43F00203637341
:105408007DB12B68A5609D421FD0F3B194F90E20A1
:1054180093F90E10914212DD5A68C4E90032146003
:105428005C60731C18D026EAE6760A22724304F1FF
:10543800180001320949BDE8704000F0FFBA6968F8
:105448008B4202D01B68002BE2D16B6863606B68EB
:1054580025601C606C60E4E770BD00BF8F8A00089F
:1054680070B50F4D0F4C0646A868FFF7BFFFAB6835
:1054780023603046FDF772FF4FF01002EFF31183FF
:1054880082F31188BFF36F8F2268A968914204BF25
:105498000022226083F31188BFF36F8F70BD00BFB5
:1054A800580800208408002010B50C461146064A0A
:1054B8009068064A10601A46FFF798FF2046BDE834
:1054C8001040FDF74BBF00BF58080020840800209B
:1054D800F8B5461C03F0CEFB34184FF01003EFF379
:1054E800118783F31188BFF36F8F0D4D0D4BA8689B
:1054F8001860FFF755FFA8680B493246183000F0CE
:105508009DFAAA68537B43F0100353733846FDF79E
:1055180025FF03F0AFFB201A20EAE070F8BD00BFBA
:1055280058080020840800208F8A00082DE9F843D5
:1055380004464FF01003EFF3118983F31188BFF38A
:105548006F8F03F030FA4EB2804660B3174D05F105
:10555800240721463846FFF725FE6B6AA673BB422F
:105568002A4619D0C3B1A96A93F90E00B0420EDDDC
:105578005A68C4E9003214605C600120FFF728FE15
:1055880089F31188BFF36F8F4046BDE8F8839942CD
:1055980002D01B68002BE7D1936A6360936A276087
:1055A8001C609462E9E7A673EAE700BF5808002088
:1055B800044B002103F12402C3E909220846FFF73E
:1055C800BDBD00BF58080020F8B5234C234BA26886
:1055D8009A4229D04FF01003EFF3118683F3118814
:1055E800BFF36F8F04F12405A1682846FFF7DAFDA1
:1055F800626AA368AA4228D03AB3A06A93F90E1047
:1056080092F90E708F421BDD5168C3E900210B60CF
:1056180053605A7B42F040025A730120FFF7D8FDCD
:1056280086F31188BFF36F8F4FF01003EFF31180EB
:1056380083F31188BFF36F8FBDE8F840FDF78EBE86
:10564800824202D01268002ADAD1A26A5A60A26A9B
:105658001D601360A362DCE7580800208007002063
:1056680038B5431C054605D10B4B986800F020F966
:10567800284638BD0A24444309D1FFF7A5FF0A226A
:1056880000232046E117FAF77BFD0546F0E72046A0
:10569800FFF71EFF0446F2E758080020014B986800
:1056A800704700BF5808002070B504464FF010033B
:1056B800EFF3118683F31188BFF36F8F03F014FAA9
:1056C800054670B1437BDB0603D183690BB9FFF74D
:1056D800B9FD0023AB6631460848BDE8704003F0C9
:1056E8008DB9D4E902329A4218BF0133A36002216E
:1056F80004F1100003F0BCFBEDE700BF7C090020BB
:1057080010B402460B464FF01000EFF3118180F3FE
:105718001188BFF36F8F946844B1013C946081F3A2
:105728001188BFF36F8F002010BC704733B981F325
:105738001188BFF36F8F6FF00F00F5E7014810BCB9
:10574800FFF7B2BE7C09002010B5084C08494FF09D
:10575800FF334FF48062204600F012F9054904F146
:10576800100003F016FA002010BD00BF90080020BA
:10577800C022002098A600080849094A38B5A0FBAD
:1057880001010023FAF7FCFC0446FDF7C3FD0546BA
:10579800FDF7C0FD401BA042FAD338BD007A030ACA
:1057A80040420F0010B502464FF01003EFF311848A
:1057B80083F31188BFF36F8F437B590704D484F3B5
:1057C8001188BFF36F8F10BD23F00403437303F0F8
:1057D800D7F910B11046FFF735FD21460248BDE85C
:1057E800104003F00BB900BF7C09002030B587B02A
:1057F80004460E9D04950D9D03950C9D02950B9DE9
:1058080001950A9D0095FDF725FE034B9B6803B1A2
:105818001B6E236607B030BD5808002070B586B0EF
:10582800002605960E9E04960D9E03960C9E0296E3
:105838000B9E0F9D01960A9E00960446FFF7D6FF21
:105848006B1C03D02DB92046FFF7ACFF204606B0ED
:1058580070BD0A226A430132024904F1180000F0BF
:10586800EDF8F3E78F8A000810B5044603F088F9CD
:1058780010B12046FFF794FD04F1180003F0BAF9BF
:10588800637B43F010036373084B9B68A3420BD1FF
:105898004FF01003EFF3118083F31188BFF36F8F7C
:1058A800BDE8104003F0B5B810BD00BF580800208F
:1058B80038B505464FF01003EFF3118483F31188D0
:1058C800BFF36F8FFFF7D0FF074B9B68AB4205D143
:1058D80021460648BDE8384003F090B884F31188A3
:1058E800BFF36F8F38BD00BF580800207C09002027
:1058F800F0B5204E204D87B03746B54205F130044B
:105908000BD3FFF73BFC1C4C1C4E0A25BC4221D391
:1059180007B0BDE8F040FFF779BC54F8043C0593A4
:1059280054F8103C049354F8143C039354F8183C6E
:10593800029354F81C3C019354F8203C009354E91A
:105948000A2354E90C01FFF751FF54F8303CDD6499
:105958002546D2E7626A531C03D020681AB9FFF7BC
:1059680021FF3034D2E76A4301323146183000F063
:1059780065F8F6E7002B0020002B00208F8A00082E
:105988002DE9F041054686B00E461746984602F0C6
:1059980098FF05F110040020CDE90400CDE90208C4
:1059A800CDE90050064B3A4631462046FFF736FF10
:1059B8000449204606B0BDE8F04103F0EAB800BF4C
:1059C80019640008A1A60008034B1B680BB9FDF772
:1059D80083BC0020704700BF0C090020036840B159
:1059E800074A5268904204D01BB19A6881680A44F9
:1059F8009A60426813605A600023C0E90033704718
:105A0800F02900200B4B10B51C689C4208BF0024ED
:105A1800FFF7DAFF54B1A368181A20EAE070064BC2
:105A28001B6913B19842A8BF184610BD6FF000401B
:105A3800F5E700BFF02900205808002070B504469B
:105A48001646C1604FF01003EFF3118583F31188F8
:105A5800BFF36F8FFFF7B8FF184B1A68012EACBF62
:105A6800801901309A42A06001D05E6832B95A6844
:105A780062605A68236014605C600AE09068A168FC
:105A8800884215DD411A91605168C4E900210C6013
:105A980054601A689A4206D0944204D1FFF7B2FFC4
:105AA8000021FDF7B5FB85F31188BFF36F8F70BD3B
:105AB800091AB242A160DAD01268D7E7F0290020AB
:105AC8002DE9F04B0446FFF735FC4FF01003EFF3D8
